:020000040001F9
:10600000483C00208D610100A7610100A9610100E9
:106010000000000000000000000000000000000080
:10602000000000000000000000000000AB61010063
:106030000000000000000000AD610100AF61010040
:10604000B1610100B1610100B1610100B161010004
:10605000B1610100000000009D8C01006772010029
:10606000B1610100B16101003F6C0100B16101004B
:10607000B1610100B1610100B1610100B1610100D4
:10608000B1610100EB840100B1610100B161010067
:1060900001850100B16101006F820100B161010061
:1060A000B1610100B16101000000000000000000CA
:1060B00000000000000000000000000000000000E0
:1060C0000348854604F004F900480047E3670100EF
:1060D000483C0020401E00BF00BF00BF00BF00BF03
:1060E00000BF00BF00BF00BF00BF00BF00BFF1D1B5
:1060F00070470000401E00BF00BF00BF00BF00BFD0
:1061000000BF00BF00BF00BF00BF00BF00BFF1D194
:1061100070470000401E00BF00BF00BF00BF00BFAF
:1061200000BF00BF00BF00BF00BF00BF00BFF1D174
:1061300070470000144C144D0646064FF0B4034C53
:10614000024D024E014FF0B4074800470000000026
:10615000000000000000002100000000000000001E
:106160000000000000000000F9FFFFFF016881F35C
:1061700008884068034AEFF305839A42DAD1024C5B
:10618000A646004700000000FFFFFFFF032109486B
:1061900002680A430260084802680A43026007482E
:1061A000804707480047FEE7FEE7FEE7FEE7FEE719
:1061B000FEE700002405004054050040CD610100C9
:1061C000C1600100234922480860704710B500F003
:1061D0001DF8002805D021491F484860C8132049F0
:1061E00088612048018CC9B201290ED1818C090730
:1061F0000BD1018D0906090F042906D1808D0006F7
:10620000000F02D118490120886010BD1548018C8B
:10621000C9B2012917D1818C090714D1018D090652
:106220000A0F03D1828D1206120F0ED0090F012919
:1062300003D1828D1206120F07D0032903D1808D5E
:106240000006000F01D000207047012070470000B9
:106250000024F40000200020DFFF07C000050040FC
:10626000006C0040C00F00F000060040BFF34F8FED
:10627000FA49F948C860BFF34F8FFEE7704710B581
:10628000046800F05FFF00F0DFFF002804D0E007A3
:1062900001D100F0A9FF10BD00F02EFF002801D0B1
:1062A0000A2101E0E1210901204603F021FC002937
:1062B000EFD010BDBFF34F8FE849E748C860BFF388
:1062C0004F8FFEE710B50878402811D1032A0FD36D
:1062D00048784D280DD0502827D0442808D18878F8
:1062E000532848D0552803D100F04AFE00F08CFB1B
:1062F00010BD887830280AD031280BD032280CD035
:1063000033280FD03428F3D10021032007E000F018
:1063100037FE10BD0021084601E00021012000F0F9
:1063200087FE10BD00210220F9E788783028EED0E2
:1063300031280ED032280FD0332810D0342811D075
:10634000352812D0362813D03728EAD10021092069
:10635000E5E701210A20E2E700210420DFE7002130
:106360000520DCE700210620D9E700210720D6E739
:1063700000210820D3E700F003FE01F033F810BD40
:1063800070B5A8B025A871DF002802D0B4A2B84922
:106390008AE00020B74D25A90522131A5B185B7807
:1063A0002B54401CC0B20628F7D3002422AE600054
:1063B0002A5D8019B0A104F025F8641CE4B2062C13
:1063C000F5D31EA922A803F0BFFA00241EAD16AE15
:1063D00060002A5D8019A8A104F014F8641CE4B2DE
:1063E000102CF5D3A6481590002415A9A54801F056
:1063F0009FF8002803D09E4999A2193154E0142136
:1064000010A803F0B2FB01200146103110A841731F
:1064100001200146103110A881730020014610A808
:10642000C17301200146103110A80174012110949C
:106430000171642112940173014692481C3001F0ED
:106440001DFB002803D08A4985A22B312CE0402176
:10645000684603F08AFB8CA1684600F0E5FF8CA13A
:1064600002A800F0E1FF8CA106A800F0DDFF8AA1E0
:1064700008A800F0D9FF8AA10AA800F0D5FF16A944
:1064800004A800F0D1FF01200146103108A80177CF
:106490000020014608A84177684601F079F90028F4
:1064A00004D073496EA23B31FFF7E0FE28B070BD07
:1064B00010B5006800280BD16E483B211638808843
:1064C00076DF002804D06A4965A26331FFF7CEFE6B
:1064D00010BDAF2162A28900FFF7C8FE00B585B0EC
:1064E0001421684603F041FB0020694608700190C2
:1064F0000872604816388068022802D003280AD142
:1065000004E02021684601821E2103E066496846B6
:106510000182B4214182684673DF002804D05F21E4
:106520004FA2C900FFF7A2FE05B000BD10B5514A49
:106530000488163A00219388142C2ED00EDC102CDF
:106540001CD0112C1ED0132C1BD1103218467FDF0B
:10655000002816D0464942A2C93136E0172C16D081
:10656000192C34D0522C0CD1002211461846A9DF28
:10657000002806D0C7213AA2890026E091608088D1
:10658000908010BD0020C043908002202AE0811D31
:106590003222464803F0C2FA10BD4449C089891D21
:1065A0000A88824208D10022184681DF0028F3D0F1
:1065B00065212BA2C90008E000221146184681DFA0
:1065C0000028E9D02A4926A2E031FFF74FFE807962
:1065D0000028E1D19068022803D00328DCD1916023
:1065E00010BD03209060FFF779FF10BD10B5044681
:1065F00001F04EFD2146234800F06EFF2046FFF7D4
:1066000095FF10BD10B502F0B2FE10BD70B50D467D
:106610001D2820D1174C2649163CA088884206D157
:10662000A068002803D10220A060FFF757FF00F008
:106630000BFE00280FD1002D0DD1E06802F0DAF832
:10664000002842D0E06802F083F800F055FD0028F1
:1066500030D000F095FC70BD0400FA0500ED00E0BC
:106660002E2E5C7372635C6D61696E2E6300000098
:106670004E0200001A200020253032580000000091
:10668000C562010060290020494345434F4C440046
:106690005047313658303100312E302E3100000055
:1066A000372E312E3000000008080000642700203B
:1066B000FFFF00002078002802D00A21042001E01A
:1066C00001210A2000F0B4FCC5E70022FB49E06884
:1066D00001F0D6FFBFE710B5172805D100F0B4FDD3
:1066E000022801D100F04CFC10BD10B5182807D1CC
:1066F00000F0AAFD002804D00021092000F098FC39
:1067000010BD00F03DFC10BDF8B5068869460E804E
:10671000408848808978EA4801F0CCF900280BD0FD
:10672000082809D0E749884206D0E449CE3188429A
:1067300002D0E54AE54918E000F086FD0025E44C6A
:10674000022814D0E348864214D86078401CC0B2B6
:10675000607003280DD100F077FD002809D11521C4
:10676000A08876DFD949D84A1631FFF77FFD6570DA
:10677000A570F8BDD748C830864211D86570A0789A
:10678000401CC0B2A0700328F3D100F05DFD0028CA
:10679000EFD1012020700A21042000F049FCF8BD4F
:1067A00000F052FD0028FAD02570F8BD10B500F0B9
:1067B0004BFD012803D10021092000F039FCC54C14
:1067C00000F042FD002803D000F0A9FDA042F7D957
:1067D00000F0BAF900F0A3FDA04201D200F002FEE1
:1067E00010BDBD4988B001208861BC4900244C60BF
:1067F0008207906048680028FCD000235022B849E6
:10680000082001F007FD002803D0B049AE4A9D39A9
:1068100076E000F0F2FCB34B0B2210210020009434
:1068200001F094FE002803D0FF21A74A1E3167E043
:10683000A748AD4A00210C3001F0DBFE002803D050
:10684000FF21A14A23315BE000F09CFCA44A142103
:106850005032082002F048FB002803D073219A4AE6
:10686000C9004DE096490220443902F071FA00282F
:1068700003D01D21944A490142E095489B4B9C4A14
:1068800003211C3002F053F9002803D08F498E4AAF
:106890001F3935E000F0BBFBFFF788FF954800F09B
:1068A0003BFD954800F089FC02F070F9002803D008
:1068B0008649854A9A3123E000F0F2F800F033F877
:1068C000FFF75EFD00F052F81C21684603F04DF919
:1068D0000520C00301900F200004029000940321C2
:1068E00068460173C4810474844805908448069006
:1068F000684601F078FB002804D07D49724A443193
:10690000FFF7B4FC00F0BAF8FFF7E8FD00F01CF95F
:10691000FCE71CB50090684601714271794A082174
:1069200002F0F6FA1CBD0EB5112069460872062267
:1069300075A102A87CDF002803D0FF21624A37310D
:1069400011E00020FF21913100906A4601901180F2
:106950004B0053809080D18068467ADF002804D0B5
:10696000FF21594A4131FFF781FC0EBD30B5A9B076
:10697000052420A8664A047407CA1EAB07C3504802
:106980001C38017818A881763C21684603F0EDF8A0
:10699000022500216846009541710121018124A84A
:1069A000039025A871DF002803D0FF21464A6831F3
:1069B00024E0002025AA27A9231A9B185B780B54F2
:1069C000401CC0B20628F7D3524A20A88280062273
:1069D000028121A823910C903C210FA803F0C5F857
:1069E000032110A801831EA817900FA9684601F083
:1069F000B1F9002804D0FF21334A7A31FFF736FC81
:106A00003348856029B030BD70B500F0B6F8FF207E
:106A10003DDF002803D0FF212B4AE23128E0B120DE
:106A20003CDF002803D0FF21274AE53120E011DFB9
:106A3000002803D0FF21244AE83119E0364900201C
:106A40000B68354C012180340A4682401A4204D03A
:106A5000C506ED0E0A46AA402260401C2028F3D34A
:106A60002E4C606913DF002804D0FF21164AED3157
:106A7000FFF7FCFB606903F037F8ECE514491E20D2
:106A800010310880887801221043E12210400C3038
:106A9000DF22104088700720C870102008717047EE
:106AA00008B50020694600900870684660DF00283D
:106AB00036D0DF21044A890043E000003333000070
:106AC0007C29002004300000606601002C040000D6
:106AD000042000201C0C00000005004000010040C4
:106AE000982700206C2100207D62010013690100BD
:106AF0008F020000096701007F620100B16401009C
:106B0000D36401005F6B01005045474153490000C9
:106B1000F4B101004553000000E100E00010001056
:106B2000254801F094FB002803D00721234AC9011E
:106B300007E0234801F093FB002804D0E1211F4A1D
:106B40008900FFF793FB08BD10B502F057FA40DF4C
:106B5000002803D0194A1B49FFF788FB10BD10B568
:106B60000246082904D018A2A8210020FFF77EFBC6
:106B7000517910791268904710BD10B51D481E4913
:106B80008088884207D0132176DF00280AD0FF21B1
:106B90000A4ABA310DE074DF002803D0FF21074A0A
:106BA000AD3106E001F043FA002804D0FF21034A8A
:106BB000C331FFF75BFB10BDED65010060660100AE
:106BC00005660100170400002E2E5C2E2E5C2E2E72
:106BD0005C2E2E5C496E636C7564655C6170705FE1
:106BE000636F6D6D6F6E5C6170705F627574746FF2
:106BF0006E2E680004200020FFFF0000F0B5012584
:106C00002C468C40CD4F8000CB4EC719002B13D0A3
:106C1000B460CB4C3C6100BF00BF00BFC94C001941
:106C200005600802C01C11040843190508433861B7
:106C300000BF00BF00BFF0BDF460C34CEAE710B571
:106C4000C2480024C4600120C149C004886070208B
:106C500046DF0021084600F054F9204649DF10BD08
:106C6000F8B56425BB49FF2603270024BA4A030070
:106C700003F00CFC07050B2E353A3F434800092072
:106C80001061192000020D6004E008201061FF204F
:106C900040010E604860B148076054609460AB49A1
:106CA0000820C0310860A74CA8492246002000F007
:106CB00023F9A64922460C31012000F01DF90321D9
:106CC0000A202BDF0A202ADF0A2026DF0020F8BD59
:106CD000052010617D20C00008608000DAE71761A0
:106CE0007D2000010860D5E70220106132200D6090
:106CF000D0E714611F200E60CCE7146140200860CB
:106D00000820C7E70020C043F8BD10B5944C01210E
:106D1000204600F0F9F80120E0608C490022CA60AA
:106D20008A604A600A608B498B4A09684900403290
:106D3000D160206010BDF8B5874C46004034216812
:106D40008E422DD02368834D61157B4F2A68002B1E
:106D500027D000286BD090427DD3B960102046DF49
:106D60000021084600F0CDF8002048DF0321002074
:106D700000F0C7F875497B4A0C31042000F0BCF8DC
:106D8000102045DF6868FFF7A5F9102046DF0021D5
:106D9000084600F0B6F8002020606848724901619A
:106DA000F8BD002804D0904204D3B9602060F8BD3B
:106DB000F960FBE7032046DF2660786880051BD575
:106DC0000123032209210020FFF718FF00210846B4
:106DD00000F097F8002049DF0321002000F091F82F
:106DE000102046DF5F4A5949121F0C31042000F081
:106DF00083F8102045DF6CE00023032209211846A8
:106E0000FFF7FCFE0021084600F07BF8002049DF78
:106E10000321002000F075F8102046DF514A4B494D
:106E2000121F042000F068F8102045DF51E0F960DF
:106E30000021084600F065F8002048DF032100200B
:106E400000F05FF8474A4149042000F055F810204F
:106E500045DF686800E00AE0FFF73CF900202060A9
:106E6000102046DF0021084600F04BF895E7206827
:106E7000364F083786420BD9102046DFA660384AC5
:106E800039464032042000F037F8102045DF20E07A
:106E9000702046DF0021084600F033F8002049DF6B
:106EA0003021002000F02DF8264A3946042000F059
:106EB00023F82B4A39464032052000F01DF8294AB4
:106EC0002249121F0C31062000F016F8A66040205F
:106ED00045DF6868FFF7FEF800F026F8F8BD10B54A
:106EE0000020FFF728FF1E480169002100F00CF880
:106EF00010BD184800687047102801D2C0B247DFA3
:106F00007047C0B24ADF7047184A904201D1184812
:106F100003E0184A904202D11748C1607047104AF6
:106F20009042FBD11548F8E708490020C8600120CD
:106F30000749C004486070470005005000650040E4
:106F4000031F010000600040031F020040A1004039
:106F500000A300404420002000A50040240700506A
:106F600000A0004004F00140001F0300008000402A
:106F7000008C004000900040009C004000AC0040AD
:106F800010B55F4C606901F035FC002802D06069E3
:106F900001F0DEFBFFF7A3FF0B20E0600020A06004
:106FA00060702061E08020710121A170207010BD0F
:106FB00070B55349C8680B2825D08A788B680C694E
:106FC0009856002500190861CC88641CA4B2CC80B6
:106FD0005D57A54215DC0023CB804B785B1E9A429F
:106FE00002DA521C8A700CE0454ACB781279002BE9
:106FF00001D0012A08D901238B70012A01D9521E20
:107000000A71FFF798FE70BDFFF7BAFF70BD10B5AB
:107010000320FFF725FE3A483A4A0121143001F0D7
:10702000E8FA002803D038A27321FFF71FF910BD3A
:10703000F8B5334C064620780F46002801D0FFF7FC
:107040009FFFE7702771374D0720E660330003F09C
:107050001DFA0B070B14181C1E2326292C2F370092
:10706000FFF747FF142102E0FFF743FF28214843C1
:10707000642102F03DFD206122E0FFF73AFF3C2150
:10708000F5E7FFF736FF5021F1E7274901E02649F0
:10709000C91FA160607013E023490E39F9E7224946
:1070A0001539F6E720491C39F3E71F492339F0E782
:1070B0001D481E4DC01DA0609520607014202061E9
:1070C000A068012600280DD000222946606901F041
:1070D000D7FA002803D00CA2BB21FFF7C7F8FFF7AF
:1070E00014FE07E02069002805D0FFF70EFE206996
:1070F000FFF721FE2670F8BD0148007870470000B8
:107100004C200020B16F01002E2E5C7372635C6511
:10711000735F6C65645F7363686564756C652E632B
:1071200000000000D703000023B20100CD0C0000D6
:1071300008480021C16001218160074A4260074878
:107140000160704706480068C00702D0064905483C
:107150000860704700050140FFFF59000000014032
:10716000000401403546526E0006014010B5174834
:107170000168491C01604268002A02D0042101F024
:10718000C7FE10BD114810B5114A0121083001F0A9
:1071900030FA002803D00FA22021FFF767F80B4830
:1071A00001210022C903806801F06AFA002803D097
:1071B00008A22321FFF75AF810BD04494860704720
:1071C0000248006870470149086070476420002049
:1071D0006D7101002E2E5C7372635C65735F636C6E
:1071E0006F636B2E63000000704901200860704AD5
:1071F000002111606F490860704770B56B4C6E4894
:107200006060FFF7F1FF6A4E0A2002F047FB30682A
:107210000028F9D000253560A068664901264E6037
:107220004B21890148436449C91E02F061FC63494E
:107230004880256062484660032107202BDF072035
:107240002ADF072026DF70BD5E480169C901C90F2A
:1072500001D00020704700690002C00F01D0022059
:1072600070470120704770B551480168002952D01D
:1072700053494968C9074ED0002606604B498868C3
:107280004C4B01225A600E604B21890148434A4908
:10729000C91E02F02DFC0246FFF7D6FF4A4D474CAF
:1072A00000281FD02868002814D0607881006A5018
:1072B0000621401C02F01CFC6170002001468A007F
:1072C000AA58491C10180629F9DB062102F010FC07
:1072D000024608E0667000208100401C6A500628C3
:1072E000FADB00E02E6090B2608000F01EF82070A3
:1072F0006268002A0FD03149638808310B8088709A
:107300002E480421083001F003FE002803D02FA2EC
:10731000A021FEF7ABFF70BD2849486070472748A1
:1073200040887047254800787047FEB50D26002438
:1073300002F0F2FC2A4D0090A1006958009802F07A
:1073400033FD02D9641CB442F6DBB44201DB0020F9
:10735000FEBD002C27D0224F34373E5D304602F070
:10736000DBFC019038192038C07F801B02F0C9FC7B
:107370000646A0002F5840194038C06B394602F02D
:1073800064FC314602F069FC04463946009802F07C
:107390005CFC214602F061FC019902F005FC02F060
:1073A000D1FCC0B2FEBD6420FEBD000000750040EF
:1073B00000710040007000400204000070200020B6
:1073C0000073004000050050942900202E2E5C73AD
:1073D00072635C65735F626174746572792E6300B9
:1073E000C0B2010010B501F0DCFB0649044808609A
:1073F00034DF002803D004A21A21FEF737FF10BDA6
:107400000C000300600700502E2E5C7372635C65F5
:10741000735F706F7765722E630000000A780270E8
:10742000497841700220704770B504460D46084601
:1074300002F0B3FB2080656070BD000070B50024D1
:107440000546601C90B00007000F08A91030089492
:107450000870601C0007000F103048708878F9260B
:107460003040801C88701C2101A802F07EFB694618
:1074700008791021084369460871029408A8049409
:10748000059407940690287808A988710320694616
:107490008884112000940870002048708878E721C3
:1074A0003040801C08400126304369468870142112
:1074B0000AA802F05AFB09A80A9068460B90694690
:1074C0000E8614204C8688862B4668880C330AAAC0
:1074D00001A9A2DF10B070BD00281ED000291CD069
:1074E0000A88102A14D0112A14D0502A15D1891DC7
:1074F0000A88038A9A4202D10B8B022B0ED0838812
:107500009A420AD18369002B07D00A8B1A31184797
:10751000898801E00021C94381827047CA7E8B7E41
:1075200011021943C907C90F00D0012181757047A5
:1075300030B54A4B0D4604000FCB85B003936B4624
:1075400007C324D0002D22D00020C043A082286889
:10755000A0610020A0752146684663DF002814D191
:1075600021786846817401210182A21C04A90120AE
:10757000A0DF002809D129462046FFF75FFF002839
:1075800003D12946204600F02BF805B030BD0E206F
:10759000FBE707B584B000280DD0828A304B9A42B1
:1075A0000BD0827D002A08D06A46128B142A06D995
:1075B000072007B000BD0E20FBE70820F9E70022F6
:1075C000009201920292039282896B461A80039183
:1075D00006A9029101219970808A6946A6DFE8E731
:1075E00070B58EB005461C21684602F0BEFA6946A9
:1075F00008780C210843694608700024019403941C
:10760000049405940694287808A988700220694695
:107610000884601C0007000F1030079408771120C1
:107620004877887FF9210840801CE721084001261F
:10763000304369468877142109A802F096FA08A811
:10764000099007A80A9069468E851420CC85088683
:1076500068882B1D09AAA2DF0EB070BD04B301001B
:10766000FFFF000070B50C00054604D195A2332140
:107670000020FEF7FBFD002D04D192A23421002052
:10768000FEF7F4FD207828702088FF2109020840C9
:10769000000A6870206809020840000CA870206881
:1076A000000EE87020792871207A68712089000A1C
:1076B000A871A068000CE87170BD70B50D0004469B
:1076C00004D180A24B210020FEF7D0FD002C04D174
:1076D0007CA24C210020FEF7C9FD28782070698823
:1076E0006170090AA170A988E170090A2171E8880E
:1076F0006071000AA07170BDFFB58FB01E461546BF
:107700000F0004D16FA26D210020FEF7AFFD002D08
:1077100004D16CA26E210020FEF7A8FD1C21684652
:1077200002F023FA6846017802200143684601709E
:1077300000240194039404940594012108A806945C
:10774000817068460F9901840794317801777178C8
:107750004177807FF9210840801CE72108404108DB
:10776000490068468177142109A802F0FEF908A8AB
:10777000099007A80A9068468585C48505865D48F6
:107780000D9709AA69460088189BA2DF13B0F0BDC7
:107790007FB5044601216846817157498180554A69
:1077A00001A90120A0DF00287ED1228825463C3592
:1077B000002A09D04F482B46801C00904F48616832
:1077C000FFF79AFF00287BD12289002A0AD0494876
:1077D0002B460A3000904948E168401FFFF78CFFB4
:1077E00000286DD1228A002A0AD042482B46123046
:1077F000009042486169001FFFF77EFF00285FD1BB
:10780000228B002A0AD03B482B461A3000903B4876
:10781000E169801EFFF770FF002851D1228C002AF9
:107820000AD034482B46223000903448616AC01E8A
:10783000FFF762FF002843D1228D002A0AD02D488D
:107840002B462A3000902D48E16A401EFFF754FF76
:10785000002835D1216B00290ED002A8FFF702FFC6
:1078600024482B46323000902448082202A9801F69
:10787000FFF742FF002823D1606B00280BD01D4981
:107880002B463A310091027901681C48401CFFF7F1
:1078900033FF002814D1A16B002910D002A8FFF7F4
:1078A0000CFF1448423000E00AE0009013482B46D9
:1078B000072202A92730FFF71FFF002800D1002070
:1078C00004B070BD2E2E5C2E2E5C2E2E5C2E2E5CF7
:1078D000536F757263655C626C655C626C655F7347
:1078E000657276696365735C626C655F6469732E4B
:1078F000630000007C2000200A180000292A0000F4
:1079000008B50A88102A1AD0112A1AD0502A1BD179
:10791000027D002A18D0891D0A8843899A4213D112
:107920000A8B022A10D10268002A0DD0CA7E8B7EF3
:1079300011021943C907C90F07D0002106E0898841
:1079400001E00021C943418208BD01210091026884
:107950006946904708BDF0B50546007D002493B008
:107960000E4600280DD001200146103168460394D0
:107970000173717B4173817BF9200140891C68464A
:1079800081731C2104A802F0F0F86946087C0221EA
:107990000843694608742A7DEF21002A02D010228C
:1079A000104300E008406A46107405940794089458
:1079B000287D002800D003A8099001270A941046CA
:1079C0009771544A82800094B27B0270F27B4270BD
:1079D0008078F9221040801CE722104041084900BD
:1079E00068468170317B017214210BA802F0BDF84A
:1079F00001A80B9068460C908786C486078702A86A
:107A00000F90A888AB1D0BAA04A9A2DF002833D1D0
:107A1000B06800282ED0684687713F498180009465
:107A2000317C017000200146684641708078F92160
:107A30000840801CE72108404108490068468170E1
:107A400011A8B168FFF7EAFC064614210BA802F062
:107A50008CF801A80B9068460C908686C486068731
:107A600011A80F902A46E8880E320BA9A3DF002840
:107A700002D100E0EC81002013B0F0BD38B504461F
:107A8000086820600020C043608208792075FF20CC
:107A90000D46207401216846817020490180221D15
:107AA00069460120A0DF002803D129462046FFF7C0
:107AB00052FF38BD33B585B004466946227C097E45
:107AC00000208A4222D00125684605822174E08880
:107AD00006AB04AA0021A4DF002817D1608A104950
:107AE000884215D0207D002812D0002000900190FF
:107AF0000290694603900D82E2880A808D7088802A
:107B000004A8029006A80390608AA6DF07B030BDE3
:107B10000820FBE7192A0000082900000F180000C0
:107B2000FFFF0000FFB583B0074600200C9C86468F
:107B3000267805463AE07868A90041180A88684620
:107B400082804988C1800022694601A865DF00283B
:107B500010D1684601780598814226D170460028E8
:107B600001D0002200E002222078891841181F2944
:107B700002D90C2007B0F0BD7146002908D1401C85
:107B8000C0B2411C069B049A21701A5401208646FB
:107B9000217806980A18694601A865DF0028E9D10E
:107BA000694620780978401820706D1C3888A842F2
:107BB000C1DC7046002804D020780699801B401E46
:107BC00088550020D6E7F8B51546069C1E460746A0
:107BD00002220094FFF7A6FF002806D133461022A8
:107BE000294638460094FFF79DFFF8BDF7B582B0EF
:107BF00000260546167000681446002805D0284661
:107C0000039900F0DFF806002DD1687900281BD019
:107C10002078039F001D1F2824D8684679DF00289C
:107C200021D121780322481C20707A54217819220E
:107C3000481C20707A542078C1196846008800F0EA
:107C4000BCF82178401820702989002923D0012010
:107C50008446EA680398002A07D0227853189B1CB0
:107C60001F2B04D90C2005B0F0BD0720FBE71346FD
:107C7000521C491C2270C15422786746511C217045
:107C8000875423782A891818E96801F047FF20787B
:107C9000297A401820702869002815D00021415603
:107CA00022788C46D01C03991F28DBD8501C022355
:107CB00020708B5422780A23501C20708B5420781B
:107CC0006246431C23700A54A88A002809D028461B
:107CD0000094062202211430039BFFF774FF060074
:107CE000C1D1A88B002809D028460094072203217F
:107CF0001C30039BFFF767FF0600B4D1A88C002857
:107D000009D028460094152214212430039BFFF744
:107D10005AFF0600A7D1E86A002805D02246039939
:107D200000F085F806009ED1286B002805D0224679
:107D3000039900F0BBF8060095D13820405D00287B
:107D400006D022462846039900F0E2F806008AD1C0
:107D5000304688E770B50D4692B000216A46117032
:107D600007241171002812D00189002905D0C168AB
:107D7000002902D00978490702D4204612B070BD0C
:107D800002A9FFF733FF0028F8D102AE00E0002679
:107D9000002D0BD028890028EFD101AA0AA9284676
:107DA000FFF724FF0028E9D10AAA00E00022684674
:107DB00003790178304672DFE0E70870000A487006
:107DC00002207047F8B514780746A01C15460E46E9
:107DD0001F2803D83879801C1F2801D90C20F8BD32
:107DE0001D20001B80B26946864608803019801C21
:107DF0007DDF0028F3D13868022805D16846008865
:107E0000704501D8092107E038790821002801D000
:107E1000704501D968460088421C3255641CE2B2A4
:107E2000B1542978801C081828700020F8BDF8B5D6
:107E30000D4611780646881D14461F2801D90C20CE
:107E4000F8BD33880720062BFAD31927FF01BB4260
:107E500002D94E4A9342F3D17288062AF0D3BA422D
:107E600002D94A4FBA42EBD1484FBB4203D0BA4283
:107E700001D09342E4D8481C052220706A5420782F
:107E80001222411C21702A54207841193088FFF7B2
:107E900094FF21784018C0B2207041197088FFF714
:107EA0008CFF2178401820700020F8BD70B5054681
:107EB00000790E46801C1446C0B21178821C8A18C4
:107EC0001F2A01D90C2070BD0A46491C401C217094
:107ED000B0542078FF22411C21703254207881193F
:107EE0002888FFF76AFF21784018C0B22070AA885E
:107EF000002A09D0A968002908D0801901F00EFED7
:107F00002078297940182070002070BD072070BDAE
:107F1000F7B582B002981446406B0F46002832D065
:107F2000029800252030009028E00298416B0C2038
:107F300068430E18217830794A1CC01C227078548E
:107F400021781622481C20707A542078C119308874
:107F5000FFF733FF21784018C0B22070B288002AA2
:107F600009D0B16800290ED0C01901F0D7FD2078E2
:107F70003179401820706D1C0098EDB2007EA84247
:107F8000D3D800206FE607206DE60000FFFF000059
:107F900038B57A497A4A488890420FD04A78794C65
:107FA000521CD2B24A70237B934208D3083175DF4A
:107FB000002803D0A169002900D0884738BD0025DA
:107FC0004D70217C002907D03B2176DF002803D0AB
:107FD000A169002900D0884761690029EED0684670
:107FE0000095884738BD70B5054601461C22654896
:107FF00001F094FD614C002626702968002907D005
:108000000822A01801F08AFD204608307ADF02E03D
:108010005A4808307BDF002808D1401E608057484E
:108020006670594A0021001D00F0E3FA70BD10B5DA
:108030005248406800F08CFB10BDF8B54F48103036
:1080400000F08EF800264D4D4E4C002806D0616998
:10805000002919D001200090684614E028780028F3
:1080600004D0616900290FD00096F5E768780028F0
:108070000CD0A1680022686800F002FB002803D041
:10808000A169002900D088472E70F8BD6168F1E72A
:10809000F8B53C4C02880027384DE689102A18D0E4
:1080A00029464968112A21D0122A2DD0502A0FD1F1
:1080B000801D0288B2420BD1028B022A08D1C27EF7
:1080C000837E10021843C007C00F13D0FFF7B5FF1F
:1080D000F8BD818869800146284808220E31103099
:1080E00001F01CFD6F70002EF0D0F8BD0020C043E1
:1080F00068806F70084600F02BFB0028F5D0A1695E
:108100000029F2D08847F8BD811D1C480822103094
:1081100001F004FDDAE7F8B50146184808220830F6
:1081200001F0FCFC154808307ADF04000DD113483B
:10813000103000F015F80125002808D011484169D9
:10814000002902D06846009588472046F8BD0B4EAE
:10815000357031460831708875DF04467570F4E774
:108160004188064808300288914204D34088814201
:1081700001D801207047002070470000C82000206F
:10818000FFFF0000AC290020917F010010B50846D8
:108190001146FEF78FF810BDF8B53D4C2078002849
:1081A00037D02069002807D00026E068002805D0D5
:1081B0000025002E04D013E00126F6E70125F8E79C
:1081C000684651DF052806D0002806D031A2692173
:1081D000FEF74CF804E0012602E021690098884788
:1081E000002D12D1608869460880A06861DF0528EB
:1081F00006D0002806D027A28021FEF737F804E039
:10820000012502E0E168A0688847002ED8D0002D43
:10821000CFD0F8BD70B5002901D08C0701D0072060
:1082200070BD1B4C0125A16062802749636010DF8F
:108230000028F5D12570162026DF70BD11DF00283B
:1082400001D0012100E00021114A1170704700287F
:1082500003D00F49C860002070470E2070470028E7
:1082600003D00B490861002070470E20704710B5FD
:1082700007484068002808D08047002804D0FF2124
:1082800004A23331FDF7F2FF10BDFFF785FF10BDEB
:10829000E02000202E2E5C2E2E5C2E2E5C2E2E5CDE
:1082A000536F757263655C73645F636F6D6D6F6E42
:1082B0005C736F66746465766963655F68616E643C
:1082C0006C65722E630000008D8101008307FF2220
:1082D000DB0E9A408907090E994000280BDA000747
:1082E000000F08388308FF489B001B18D86990438B
:1082F0000843D86170478308FB489B001B18186827
:10830000904308431860704770B50124F749600432
:108310000860F74940108860F54940398860F54D9C
:108320006C602F20FDF7E6FEAC60F34D00242F209B
:108330006C61FDF7DFFE2C7170BDF0B5EE4F2821AA
:10834000BC6841430D1939694A1C09D028224A43A7
:108350001619AB68B268934204D8D21AB260696247
:108360003861F0BD0A4602E00A46796A9B1B4E1C42
:108370000BD028264E433719BE689E42F4D32826D8
:108380004E433619B768FF1AB760AB60696228219F
:108390004A4311194862F0BDF8B5D74C2569681CED
:1083A00036D0D648002640686169401A07023F0A65
:1083B0001AE028204543A0682A189068B84215D8CA
:1083C000A3693F1A8619556A002B0AD0116AD06931
:1083D0009847002808D0FF21C9A26431FDF746FF65
:1083E00002E0D169106A8847681CE2D1A178E07880
:1083F000814206D1401CC0B2E070022801D10020A9
:10840000E070BD490006800D1C310E5000F003FAEB
:10841000F8BDF8B50446B84801690091467856E0C1
:10842000B548F100C2688D184BE0601C07D0B24A15
:10843000282192686143204689184C6A20E02878F8
:10844000182141436A68401CC0B252182870A978AC
:10845000884201D100202870A74B506828219B68D2
:108460004143C9181368012B2DD10B7E002B2AD153
:108470009368CB60D3680B6113694B6152690A62E0
:108480009D4ACF685369BC46FA1A1202A74F120AD6
:10849000BA4202D20B69D21809E062469A1A120255
:1084A0000B69120A934201D99A1A00E000228A60ED
:1084B0000022CA600A6101220A76921E4A62FFF710
:1084C0003CFF601CB1D1287869788842ADD1304634
:1084D000761EF6B20028A3D1874801690098814230
:1084E00001D00120F8BD0020F8BD914900200860AE
:1084F00048608860C8608E494039086048604BE732
:10850000F0B5002087B0C04302907B4846690569FA
:10851000684600F085F9074600F09FF90446002FF1
:1085200008D002AA3146009800F0DFF90298FFF760
:1085300070FF06E00298FFF76CFF002801D1002CC5
:1085400002D0284600F0FAF907B0F0BDFFB5980751
:10855000002481B01E4615460F4600280BD1002E80
:1085600009D0FFF7D1FE64490A9888610F7032463E
:1085700000208E6008E0072005B0F0BD28234343AB
:10858000D4509B181C76401CB842F7DB2820474388
:10859000BB19032048700F461846CB6019461830A7
:1085A000002218232E465E43D3005B181C705C70BB
:1085B0009D7058603018521C032AF5DB0020C04320
:1085C0003861BC70FC7001245A4824050460032102
:1085D0001420FFF77BFE454880380460474C019823
:1085E000A06003211120FFF771FE60687861002010
:1085F000C2E770B5404CA568002D06D0002A06D011
:10860000002804D00023247809E0082070BD07204A
:1086100070BD28265E43AE59002E04D05B1CA342D9
:10862000F7DB042070BD282401265C432E51641919
:10863000E26161600360002070BD2A494868C0059E
:10864000C00D17D0103807D50207120F083A92084C
:1086500092005118C96904E08108234A89008918E9
:1086600009688007C00EC1400806800F012803D0AA
:10867000032803D002207047002070470120704774
:10868000FEB504461C48174682680D46002A0CD0E9
:1086900001788C4201D2052D01D20720FEBD214672
:1086A000282359435358012B01D00820FEBD8818B8
:1086B0004068012848D00026FFF7BFFFC0000E49E0
:1086C0000190C9684018694600F07EF900283DD045
:1086D000012144600160094949680830E2C0064947
:1086E000019829E000ED00E000E400E080E100E016
:1086F0004013014000100140F4200020001501400B
:108700002E2E5C2E2E5C2E2E5C2E2E5C536F7572E0
:1087100063655C6170705F636F6D6D6F6E5C6170DF
:10872000705F74696D65722E63000000FFFF7F004B
:108730004011014080E200E0C9684118009848708B
:1087400000F069F80020FEBD2E46B5E70420FEBD0E
:10875000F8B5BF4D0446A868002809D029788C4296
:1087600001D30720F8BD282161434058012801D0DA
:108770000820F8BDFFF761FFC600E86869463018B9
:1087800000F022F9002809D0022112C0E86831184F
:108790000098487000F03FF80020F8BD0420F8BDB4
:1087A00038B5AB4CA068002815D0FFF746FFC500D0
:1087B000E0686946281800F007F900280DD0032169
:1087C0000160091F4160E06829180098487000F0B6
:1087D00022F8002038BD082038BD042038BD9D494E
:1087E0004968016000207047401A0002000A1060CA
:1087F00000207047964A9168002907D0127890426D
:1088000004D2282250430A58012A01D00020704780
:108810004018007E704701208F49000508607047AE
:1088200010B58B4900238A78CC78A24212D0521C12
:10883000D2B28A70022A00D18B708A78844B92005F
:108840001C339A580260486910180002000A4861F7
:10885000012010BD0360002010BDF8B57C480169FF
:108860000091457833E07A48E900C0680E18347802
:108870002AE0182060437168641C0818B178E4B2DB
:10888000A14200D100240168022902D003291BD192
:1088900013E06F4A40682821926841438F18397E5F
:1088A000002911D000F0A2F8002038760CE028272B
:1088B0007843C0180276406A03E0654900228B685D
:1088C0000869471CF3D108617078A042D1D12846CD
:1088D0006D1EEDB20028C6D15D4801690098814245
:1088E00001D00120F8BD0020F8BDF7B5584C002597
:1088F000A76823691EE028215943C9198E6886425A
:1089000002D9301A886017E0801B751900268E6026
:108910000E764E699C464B6AB646002E0AD0019EE2
:1089200076193602360ACE6076460E6116684E62B9
:1089300061461160591CDED12361FEBDF8B5444883
:1089400001694A1C3DD028225143826889188E68EB
:1089500040494C6847690079E11B0D022D0AED1C66
:10896000002815D101203D4A000450603B4A403A9E
:108970005060394940008031086039490860394900
:10898000012008602F20FDF7B5FB31490120087157
:10899000B54200D23546E81900022E49000A40319E
:1089A00008602C494968001B091B0902090A0002DA
:1089B000C91C000A814203D90120274940040860EC
:1089C000F8BDFFF7A1FCF8BD42788378521C9342B2
:1089D00000D100220378934201D1002070470A6041
:1089E00041684078182250430818704770B5184EF7
:1089F0003569B26829460C4606E0844207D0254610
:108A000028235C43A3185C6A631CF6D170BD002B5D
:108A1000FCD0A54208D1282041438818406A306123
:108A2000401C01D1FFF770FCB16828204443601856
:108A3000282382685D43406A6B185862431CE5D066
:108A400028235843401881688918816070BD000050
:108A5000F42000200015014000E200E04013014036
:108A600000E100E00010014010B56C4AD368002B13
:108A70000AD0CAB2017880689847002803D068A25B
:108A80002821FDF7F3FB10BD012906D00029FAD1FA
:108A9000037882681846904710BD037801218268E8
:108AA000F8E7F8B55D4D6946687800F0F8F90028F8
:108AB0001ED12F4600241437012616E00C206968C9
:108AC00060434018037831463A6899400A4210D012
:108AD0008268002A0DD04178012901D1002100E0EF
:108AE0000121FFF7C1FF641CE4B228788442E5D37A
:108AF000F8BD7A680A42F6D081680029F3D041783F
:108B00000129EDD0EAE770B5444D04460E462869C8
:108B1000FFF71EFE002809D1284614300660446085
:108B200034432246A9682869FFF7AAFD70BDF8B54D
:108B3000052A01D20720F8BD384C444D60602170F1
:108B4000E360A260002201240CE00C234B431B18BD
:108B50001E785F68B600BF00761937601E7823461E
:108B6000B3401A430B46491EC9B2002BEDD12B4826
:108B7000374B1146401C00F012F90028DBD1274882
:108B8000344A00211030FFF734FDF8BD10B52348FA
:108B90004168002903D0407800F024F910BD082076
:108BA00010BD10B51D4C6068002808D0607800F03A
:108BB0005AF9002802D12069FFF7CAFD10BD08202C
:108BC00010BD38B5154A0C461178884201D90720E6
:108BD00038BD0C2148435168451800290CD069461E
:108BE000507800F05CF90028F2D16A780121002A5F
:108BF00004D0012A08D00FE0082038BD2B78009A55
:108C0000DA40D20707D104E02B78009ADA40D20785
:108C100001D0217000E02070002038BD1821002014
:108C20002E2E5C2E2E5C2E2E5C2E2E5C536F7572BB
:108C300063655C6170705F636F6D6D6F6E5C6170BA
:108C4000705F627574746F6E2E63000000070050D1
:108C5000078B0100A38A0100F0B50022012303263F
:108C600036041F4697400C463C420FD0C5682C4640
:108C70003C420FD03446BD43C560934D97007D19EB
:108C80002F68B7432F602F6827432F60521C202A7C
:108C9000E7D3F0BD012464043D43EDE7F8B58B480C
:108CA00005698B490020C863074632E014213A4623
:108CB0004A434168806854180121B940014226D0D6
:108CC000E068C64320686E40064031462046FFF704
:108CD000C3FF7E48006968400CD00543E068216806
:108CE000C04368400840014600902046FFF7B4FFAB
:108CF000009806433046A168A84301402A466068B0
:108D00003240104002460A4301D0226990477F1C3E
:108D1000FFB2704841788F42C8D3F8BDF0B56D4AB4
:108D200000215368142250430124674D03273F0458
:108D30001E5822468A40164206D08A0052191668EA
:108D4000BE43166016681660491C2029F0D3F0BD9A
:108D500010B5002903D08A070024002A01D007207B
:108D600010BD5C4A0B465160107014215470414391
:108D70001846946000F0F9FE00205749C04388600F
:108D8000564840210160564A1068FF231B0498434F
:108D90000B041843106053480160002010BDF8B563
:108DA0004C4F84467D68002D07D0002B07D0787883
:108DB0003C78A04205D30420F8BD0820F8BD072068
:108DC000F8BD0E461424164344432E516419236102
:108DD000A260616061460870411C7970FFF79EFFD8
:108DE0000020F8BDF0B53B4A5168002904D0537803
:108DF000984203D30720F0BD0820F0BD344B002576
:108E0000DD63324B1C699768002F02D1324EDB05BF
:108E10007360012686403E439660142250434218F8
:108E2000D560002201230D5893401D4216D02546DF
:108E30001D4202D003252D0405E001256D044618CE
:108E4000F7681F43F760204B9600F3181E6803274E
:108E50003F04BE431E601E682E431E60521C202A23
:108E6000E0D30020F0BD70B51A4C054660680028BC
:108E700004D06078854203D3072070BD082070BD00
:108E80002846FFF74BFF0121A068A9408843A06056
:108E900003D101201049C0078860002070BD0D4B30
:108EA0005A68002A04D05B78984203D307207047A1
:108EB00008207047142358438018044A1269006838
:108EC000024000200A607047000700500005005073
:108ED00040610040342100200063004080E200E057
:108EE00004E400E000E100E030B5CB0008339DB2BF
:108EF00093070024002B01D0072030BD564B9A6009
:108F00005219DA605C701C7058809980002030BD66
:108F1000F7B5514C82B060880F4681426CD8002072
:108F2000694608704E494D4E4868C005C00D16D0C0
:108F3000103807D50207120F083A9208920051180C
:108F4000C96904E08108474A8900891809688007CF
:108F5000C00EC1400806850F012D01D10AE004258D
:108F600068462EDF02280BD0002803D03EA25921EC
:108F7000FDF77CF96078A188884203D2401C02E0AA
:108F800072B6F7E700202278C0B2904207D0667828
:108F90006078884201DA401C00E000206070012DFA
:108FA0000BD062B6684600782FDF022805D0002873
:108FB00003D02DA26121FDF759F92848864219D026
:108FC000A068F50004994151029900290CD0002FA6
:108FD0000AD060883A464643E068301800F09EFDAB
:108FE000A0682818878002E00021281881800020CE
:108FF00005B0F0BD0420FBE70920F9E70EB504E059
:1090000068468188029A0098904702AA01A968469A
:1090100000F003F80028F3D00EBD70B50E4B052408
:109020005D781E78B54215D01D781C789E88B442B4
:1090300001DA641C00E000241C705C88DE686C436C
:10904000A41904609B68E800C418A4880C80185810
:1090500000241060204670BD40210020FFFF00006A
:1090600000ED00E000E400E02E2E5C2E2E5C2E2EA3
:109070005C2E2E5C536F757263655C6170705F630C
:109080006F6D6D6F6E5C6170705F73636865647542
:109090006C65722E6300000014225043FE4A0021CA
:1090A00080180171C18002220161C26041610181A9
:1090B0007047FFB583B00F46F84D069A05990646EE
:1090C000EB68114303200191002B01D0E96803E014
:1090D00000290ED00121E960059A0124920024079D
:1090E00000920B0001F0D2F9073207213454748347
:1090F00032000221EFE7EA484169491C05D02169A5
:10910000406989B200F0F4FC00E060692169401E0A
:1091100089B24843216909048A0C216989B27943DB
:1091200021DF002812D102210FE0384620DF00287D
:109130000CD10599002901D0032106E006990029E8
:109140001FD13178042968D020E0E96007B0F0BD74
:10915000D3484169491C05D02169406989B200F0B2
:10916000C7FC00E060692169401E89B24143206963
:10917000059A80B2784321DF0028E7D106990029BB
:1091800001D00421E1E7317804292ED00521DCE764
:10919000C3484169491C05D02169406989B200F082
:1091A000A7FC00E060692169401E89B248437188CC
:1091B000421800981018226992B27A435218009906
:1091C000531801461846069A21DF0028DBD0BDE778
:1091D0002069718880B2784380188A08316921DF5C
:1091E0000028B3D10199002917D00621ADE7AC487A
:1091F0004169491C05D02169406989B200F078FCB9
:1092000000E060692169401E89B24843216989B242
:1092100000F06EFC20DF002898D1072195E7F8B513
:109220009D4914230A780F205A435418241D9B4942
:1092300022788F88E668022A1BD001252D07042A90
:109240002AD0052A5AD1286981B2304600F050FC54
:109250000146A38828699A1980B24843101A8208E7
:1092600060881818861928694B1C80B25843801BE7
:1092700033E0B80262882169121A0918A3883018ED
:10928000181801239B029A4202D2920821DF30E093
:10929000FF22013221DF2CE0A3688248190108185F
:1092A000018942894068B04203D1608851438142BC
:1092B00018D0032B16D0286981B2304600F018FC74
:1092C0000146286980B24843301A820828694B1C3D
:1092D00080B2584363889B19C01A83082046FFF761
:1092E000E8FE06E0286981B2304600F001FCC019B2
:1092F00020DF002802D1684901228A70F8BDF8B544
:10930000654C069E65781E2D1DD027787D19EDB21F
:109310001E2D01D31E3DEDB214277D432D1928715A
:109320006A6103C92961E860EB802E81A178002081
:10933000002904D1FFF773FF112800D100206178C4
:10934000491C6170F8BD0420F8BD38B5024652488A
:1093500014230178534C59430818C36801791B0141
:10936000E458C388009343690C30A04738BDF8B572
:10937000494B9978012914D1002548499D70CA6844
:10938000082A05D002280FD003280AD10D2006E0B4
:10939000022807D00D7000F06AFA002801D0FFF70C
:1093A000D4FFF8BDCD60F6E73B48142403783B4971
:1093B000634318188B88001D5B1C9CB28C8003785B
:1093C000022B05D14688A102B14201D3012700E05A
:1093D0000027052B01D1072A03D00021042B02D03E
:1093E00003E00121FAE7072A03D00026042B02D06C
:1093F00007E00126FAE74088A302834201D3002A4E
:109400001AD00020314301433943C4D0234E2846AB
:10941000F560FFF79AFF204C2078FFF73DFEB580FE
:109420006078401E60702078401CC0B220701E28FA
:10943000B1D31E382070AEE70120E3E7F8B5002471
:10944000164F1548BC80FC6004704470847025463B
:109450002846FFF721FE6D1C1E2DF9D3104D7C8090
:109460006869114E401C05D0306981B2686900F00E
:109470003FFB00E070693169C01E89B24843B860A3
:109480000849BC80002002018C505218148194813C
:10949000401C5481022809E0C829002050210020E6
:1094A00000100010242C002000000010EBD3082036
:1094B000F8606869401C05D0306981B2686900F0C5
:1094C00017FB00E070693169401E89B24843316979
:1094D00089B200F00DFB20DF002803D1EB4A012107
:1094E00091703970F8BDF8B50446E9480F46007828
:1094F00000281DD0002C1DD0002F1BD02068002874
:1095000018D001252D07A688286980B2864230D858
:10951000102E2ED3E088009000282AD0DD48416923
:10952000491C09D02969406989B200F0E1FA04E0D8
:109530000820F8BD0E20F8BD68692969401E89B26F
:109540004843D34B00999D6871434B19984210D3FF
:1095500001200007006980B2814208DD0120000778
:109560000069314680B200F0C3FA002901D1B0078A
:1095700001D00720F8BDC6484288022A1AD0C64842
:10958000110124C70E18756023684350A0883081EC
:10959000E0887081A088E188002348430121090701
:1095A0005B1C0C699BB2A4B2844205D20C69A4B2C4
:1095B000001B02E00420F8BD00200C69A4B265196C
:1095C0000C69A4B28442EBD9B148521C8560B381C6
:1095D00042800020F8BD70B5AD4B1B78002B18D031
:1095E000002818D0002A16D00368022B0FD2AA4CEC
:1095F0001E01A559002D0AD0456830190489614320
:1096000069184589406865432818884205D80720AD
:1096100070BD082070BD0E2070BD13600020516029
:1096200070BDF8B504469A481E46007815460F46A8
:1096300000281DD0002F1DD0002C1BD02068022830
:1096400014D2010194484258002A0FD009184A89BF
:1096500008894968424351186268914206D9002D31
:1096600004D0A84202D3A919814205D90720F8BD28
:109670000820F8BD0E20F8BD384600F0F2F80028AA
:1096800011D0304600F0EDF800280CD0606800F0F2
:10969000E8F8002807D02B463A46214602200096DB
:1096A000FFF72DFEF8BD1020F8BDF8B50446784848
:1096B0001E46007815460F4600281DD0002F1DD0ED
:1096C000002C1BD02068022814D201017248425895
:1096D000002A0FD009184A8908894968424351185D
:1096E0006268914206D9002D04D0A84202D3A9197C
:1096F000814205D90720F8BD0820F8BD0E20F8BD2D
:10970000384600F0AEF8002811D0304600F0A9F835
:1097100000280CD0606800F0A4F8002807D02B4681
:109720003A46214605200096FFF7E9FDF8BD1020D6
:10973000F8BDFFB5564881B000781F4616460C4666
:1097400000281FD0002C1FD0019800281CD02068B2
:10975000022814D2504D0001295800290FD0411978
:109760004A8908894968424351186268914206D97A
:10977000002E04D0B04202D3F119814206D907204D
:1097800005B0F0BD0820FBE70E20F9E7019800F0D6
:1097900068F800281AD0384600F063F8002815D081
:1097A000606800F05EF8002810D060683246C11989
:1097B000019800F0B3F900962068002200012D58AE
:1097C00003212046019BA8470020D9E71020D7E7B6
:1097D000F8B504462E480E460078002823D0002C09
:1097E00023D0206802281CD22B4D000129580029C3
:1097F00017D04019418902894068514309186068AF
:1098000081420ED900F02DF8002810D02168606840
:10981000090149194A680989801A00F069F9002983
:1098200007D00720F8BD0820F8BD0E20F8BD102095
:10983000F8BD002002460090334621460420FFF781
:109840005EFDF8BD12490978002906D0002806D02F
:109850000E494978016000207047082070470E20AB
:109860007047800701D0002070470120704710B575
:10987000064900204978002906D0FFF7D0FC0028CF
:1098800002D0112800D1002010BD0000C8290020FE
:109890005021002000100010242C002031B5054C70
:1098A00004E0401E00902046FCF734FC009800289D
:1098B000F7D138BDE703000001408243084610435A
:1098C00070471040914308437047484050407047EC
:1098D000D2431043484070474942C8417047800610
:1098E000C00D06D00F218901081AC005C00DC0089F
:1098F0007047FF20C130FAE7F3B585B0069800F055
:109900004CF90546FFF7EBFF009000210391009909
:10991000E80002906E1830460830074601F0E2FB7E
:1099200004462A46069900F02BF96019009900F0C8
:109930001CF980206055A019082202A900F0EEF859
:10994000059990C107B0F0BDF3B5644CADB060347B
:109950001ECC6D461EC5014604A8FFF7CDFF049836
:1099600005990E900F915E480A905E480B905C48F6
:10997000C0430C905B48C0430D9000208BE00E99D3
:109980000598402209181DA800F0C8F810220AA95D
:1099900006A800F0C3F800255048EA008158169147
:1099A000A9001C9101462B012031002459181018E0
:1099B0002646189317911B90E01CC117890F0918B0
:1099C00089088900401A81001A9006A808180268C0
:1099D000A01CC117890F091889088900401A810045
:1099E00006A808180168601CC3179B0F1B189B086A
:1099F0009B00C01A830006A81B18199318681C9BAB
:109A00006F46FB589847074618988019401C00F08D
:109A10008BF901F09DFB49004908202200F05BF919
:109A200001F0D0FA00F0A2F93A18A10006A84358B4
:109A3000169884001DA8005918181018B307179A13
:109A40001B0FD25C199B5242D0411A68761C8218B7
:109A500006A842501B981A9C01791698F6B208186D
:109A60000007000F1690102EA6D36D1CEDB2042D2A
:109A700092D30A99069808180A9007990B984018EB
:109A80000B9008990C9840180C9009990D98401863
:109A90000D9005984030059005990F98884200D99F
:109AA0006DE704220AA92E9800F038F82E980422B7
:109AB0000BA9001D00F032F82E9804220CA90830E2
:109AC00000F02CF82E9804220DA90C3000F026F896
:109AD0000E9801F0DDFA00202FB0F0BD14B30100A4
:109AE0000123456789ABCDEF10B5FCF73FFB10BDF7
:109AF00030B50B46014600202022012409E00D4626
:109B0000D5409D4205D31D469540491B25469540AD
:109B100040191546521E002DF1DC30BD10B5431A18
:109B2000934209D28318881803E0401E01785B1E17
:109B30001970521EF9D210BD03460B439B0703D088
:109B400009E008C9121F08C0042AFAD203E00B7802
:109B5000491C0370401C521EF9D210BDD2B201E064
:109B60000270401C491EFBD270470022F6E710B578
:109B700013460A4604461946FFF7F0FF204610BD7B
:109B800010B5044605E00B780370401C002B00D094
:109B9000491C521EF7D2204610BD421C0178401CC1
:109BA0000029FBD1801A7047F8B502464A40D40F0D
:109BB00042004B0052085B089A4202D20246084615
:109BC00011464A0023D0C30D4A00DDB2120EAD1A71
:109BD000202D35DA49020126490AF6058A19002C9A
:109BE00000D0524220214F1B1146B9402A41101883
:109BF000C20D9A4221D0002C17D0012D08DCDA05C5
:109C0000801AD20F8019D207DBB200F020F9F8BD1C
:109C1000DA05801A012340001B06C01880185A423A
:109C20008018CA0F1043490007E04908C2071143D2
:109C3000DA05801A80194008801800F000F9F8BD94
:109C400061000122511A001BF7E70122D20751409F
:109C5000AAE70122D2075040A6E770B502464A4063
:109C6000D50F40004A00ED0740085208002814D0E4
:109C7000002A12D0C40DD30D41020120C0055202AA
:109C8000490A520AE41A091812187D34914201D384
:109C9000641C00E04900002C01DA002070BD0023A4
:109CA000914201D3891A0343400849000028F7D1A3
:109CB00000290AD0914202D10121C90705E0914251
:109CC00001D2012101E00121C943E005C01840197A
:109CD00000F0B5F870BD70B54B005B0803430BD0C6
:109CE0004B005C0D002633466542B341D417AD1AD4
:109CF000A34102DB0020014670BD1205301851411E
:109D000070BDC217C10F504010B54018CA07962346
:109D1000002100F09CF810BD10B5002296231146DA
:109D200000F095F810BD00000EB505490291002124
:109D300000910A460B46019100F0D0F803B000BD37
:109D400033040000410040020122400AD205090EFE
:109D500080187F2901DA00207047962903DC9622BB
:109D6000511AC84070479639884070474A00090325
:109D70000123090B1B051943094B10B5520D9A42DB
:109D800001DA002010BD064B34339A4203DC9A1AE4
:109D900000F044F810BD03495118884010BD000080
:109DA000FF030000CDFBFFFF0122D207002800DBEC
:109DB000101A002900DB511A88427047F0B51FB411
:109DC0000646002082B005464024019100901BE029
:109DD000019922460F46304600F020F8049A059B70
:109DE000801A994110D310461946224600F082FA93
:109DF000361A8F410197224601200021009F00F072
:109E000079FA38184D4100902046641E0028DFDCA6
:109E1000019B00982946324607B0F0BD10B5202AB4
:109E200004DB0846203AD040002110BD0B46D34049
:109E3000D0402024A21A91400843194610BD0029A1
:109E400004DA401C490001D140084000704770B45A
:109E50000024050C05D11024000402D1002922D0D1
:109E60001124050E01D108340002050F01D1241D73
:109E70000001850F01D1A41C8000002801DB641CB7
:109E80004000002908D020252E1B0D46F540A1409A
:109E900000D00121294308431B1B0106DB1D000ADA
:109EA000002B02DA002070BC7047DB051818801800
:109EB0000029F8DA401C4900F5D170BC4008400088
:109EC000704710B5002B08DA0024401C614192183D
:109ED0005B411A4301D14008400010BDF0B51FB4EA
:109EE00082B005460C0003D0084600F09FFA02E05D
:109EF00000F09CFA2030024600902146284600F0EF
:109F0000F9F9049B059A04460F4618431143084388
:109F100003D12046394607B0F0BD1846104317D08C
:109F2000009840210A1A18460599FFF777FF054661
:109F30000E46009A0599049800F0DCF9084301D018
:109F4000012000E00020C11705430E432C43374396
:109F500000990E986305401A7905E40A0A30002238
:109F60000C43FD0A002802DA00200146D3E7010570
:109F7000101969410C9C0D9D00196941FFF7A1FF63
:109F8000C9E70000F0B507460846584087B0C00F43
:109F9000049048000E46590040084908BC1A884100
:109FA00005D2384631461E4617460B460246580033
:109FB0004008104303D13846314607B0F0BD300D9C
:109FC000039040055900400D490D0590401A02903C
:109FD00040286DDA18030121000B090508430190A0
:109FE00004980092002805D001995242002088412F
:109FF00000920190029840210A1A0199009800F0FD
:10A0000079F905460C46684607C800F083F9C0197F
:10A010007141039A0E0D0023D71756401A467A4015
:10A02000164340D0049A002A29D0029A012A039AA2
:10A0300011DC1205C01A914101263605001C714140
:10A04000D20F059ED2070093019202962A4623461C
:10A05000FFF744FFB1E71605224A0F46B218C01AAF
:10A06000B74101210905001C4F4100187F411146ED
:10A0700018187941E20F10436D19644113E0E207AB
:10A080006D0815436408C2071443039A012612059C
:10A09000C01A91413605001C7141CE07400830437B
:10A0A0004908C01851412A462346FFF70AFF84E7B2
:10A0B000049801224000C117121A00238B41049812
:10A0C0003146C417381AA141EFE730B40124E40740
:10A0D000634030BC56E730B40124E407614030BC33
:10A0E00050E700000000E0FFF0B51FB488B00B9906
:10A0F0000998002448400999C00F4900490809916E
:10A10000C0070B990090490049080B9109990898DC
:10A11000A646084303D00B990A98084303D10020B0
:10A1200001460DB0F0BD099801244000420D4800E1
:10A13000410D099824050003000B204309900B985A
:10A140000003000B20430B9050181A4940180022BE
:10A1500001901446104601E0032801DA034600E0AE
:10A1600003239C46C11A0AAE0AE05F0008ADED5B0E
:10A170004F00F75B7D430027AA187C415B1E491CFA
:10A180006145F2DD410004AB5A522104120C0A432E
:10A19000240C401C0828DFDB0198029000997046CF
:10A1A00001910090059B049A07990698FFF796FE87
:10A1B000B7E700000DFCFFFFF0B50C465C4085B032
:10A1C000E40FE40703944C00002664085900944609
:10A1D000490802460296224321D062460A431ED015
:10A1E0006200570D4A000E032303550D0124024659
:10A1F0002C492405781B1B0B360B401823432643A0
:10A20000614600901C46501AB44103D30098401C8C
:10A21000009002E0921800985B41002803DA0020C9
:10A22000014605B0F0BD002001210905074686461C
:10A2300011E064461D46141BB54106D36546521B0A
:10A24000B341744607430C43A646CD07400849086E
:10A25000284392185B4105460D43EAD11046184346
:10A2600013D06046194650407140084303D1002284
:10A270000123DB0709E06046101AB34102D2012234
:10A28000002302E00122D2435310009874460105D6
:10A29000381C6141029C039D00196941FFF711FEC2
:10A2A000BFE70000FD03000010B5002904DB012416
:10A2B000E40740428C412146002B04DB1C4601236D
:10A2C000DB075242A341994200D1904210BD0000E9
:10A2D000064C0125064E05E02046E36807C82B43DF
:10A2E00098471034B442F7D3FBF7EEFEA8B4010050
:10A2F000C8B4010010B5202A04DB0146203A914081
:10A30000002010BD914020239C1A0346E3401943CE
:10A31000904010BD10B5202A06DBCB170846203A26
:10A320001041C1170B4306E00B461341D0402024D7
:10A33000A21A91400843194610BD00000EB5C2177D
:10A34000C10F5040CA0740180021054B02930192EB
:10A3500000910A460B46FFF7C1FD03B000BD0000A7
:10A360003304000070B5CD0F4A0009030123090B27
:10A370001B0519430B4BED070024520D9A4201DADD
:10A38000002070BD074B34339A4203DC9A1AFFF762
:10A3900045FD02E00449511888402C43F1D0404269
:10A3A00070BD0000FF030000CDFBFFFF70B58C18EF
:10A3B0000578401C6B075B0F01D10378401C2A1104
:10A3C00006D10278401C03E00678401C0E70491C40
:10A3D0005B1EF9D12B0705D40023521E0DD40B7040
:10A3E000491CFAE70378401CCB1A921C03E01D7845
:10A3F0005B1C0D70491C521EF9D5A142D8D3002018
:10A4000070BD00000FB410B504A9074B02AA039851
:10A4100000F094FB044602A9002000F0CDFD204688
:10A4200010BC08BC04B01847B9AF01002021020CD1
:10A4300001D010211046020A01D008391046020945
:10A4400001D0091F1046820801D0891E104642081B
:10A4500001D0881E7047081A7047F0B4040C8BB204
:10A46000264682B25E430D0C1046370C5843360424
:10A4700080190021794116466E43370C3604801945
:10A48000794126466E438919F0BC704730B4744652
:10A49000641E2578641CAB4200D21D46635D5B00E0
:10A4A000E31830BC184700004900CA02104300D02E
:10A4B00004204A0D01D001221043054A490D914262
:10A4C00001D102210843012800D105207047000076
:10A4D000FF070000F7B596B0189B00219960D9607E
:10A4E000179908914C00CE4964088C4206DC189AF2
:10A4F000179951601060002019B0F0BDC9490027BC
:10A50000C94DFF438C423BDAD326089976050029D2
:10A51000C64A17992B4619DDFFF7D7FDAC4207D085
:10A52000C34AC44BFFF7D1FD189A516010600AE08E
:10A530003246C04BFFF7C9FDBF4AC04BFFF7C5FD10
:10A54000189A51601060012019B0F0BDFFF71AFD94
:10A55000AC4207D0B64AB74BFFF714FD189A5160CA
:10A5600010600AE03246B34BFFF70CFDB24AB34B22
:10A57000FFF708FD189A51601060384619B0F0BD19
:10A58000AF498C4217997CDC490049080746AD4A1F
:10A59000AD4B0391FFF7A8FD0022AC4BFFF7F2FC97
:10A5A000FFF7E0FE0990FFF7C9FE06469F4A2B46DB
:10A5B0000791FFF799FD3A46039BFFF78CFD05468F
:10A5C0000F469B4A9B4B30460799FFF78DFD220DA6
:10A5D00001240B922A463B46FFF77DFD189A032C77
:10A5E0005160106039D0189840684000410D0B98B8
:10A5F000401A61016118113981422EDA9449200113
:10A60000794402950C900818039743680268304615
:10A610000799FFF769FD01910090039B029AFFF7EC
:10A620005AFD05460F46039B029AFFF754FD019B16
:10A63000009AFFF74AFD01918649009079440C98F1
:10A640004018C368826830460799FFF74DFD019BAB
:10A65000009AFFF73AFD641CBCE7089800280DDA61
:10A660001899012208684968D2075140189A516028
:10A670001060099819B04042F0BD02E0099819B085
:10A68000F0BD09030122090B12050D9089181798D6
:10A69000109140007049400D40184111C006C00E95
:10A6A00020221290101A1390002006900790880024
:10A6B0006A49794445181435062007AC1590286876
:10A6C00012996A6888401399CA4010430746109946
:10A6D000FFF7C3FE0646119138460D99FFF7BDFE00
:10A6E00023688A191B189C46834201D2012600E088
:10A6F000002620464038C36B9719DB198A4201D2E5
:10A70000012700E0002711997918002E02D093420A
:10A7100002D903E0934201D2012200E0002289180D
:10A7200062462260C363816315982D1F241F401E5B
:10A730001590C4D10121029849074018800F11904B
:10A74000029805998000039D049C0B91FFF7F6FD8C
:10A7500006460F462846FFF7E7FA1D22D243FFF7C9
:10A76000BAFA0A900E912046FFF7DEFA3D22D24354
:10A77000FFF7B1FA129009910B98FFF7D5FA5D2215
:10A78000D243FFF7A8FA0D910890099B129AFFF7A0
:10A79000F9FB0E9B0A9AFFF7F5FB32463B46FFF7A3
:10A7A000F1FB00240D4632463B462046FFF78DFC68
:10A7B0000E9B0A9AFFF789FC099B129AFFF785FC0A
:10A7C0000D9B089AFFF787FC254A264BFFF78CFC68
:10A7D00006460F46244A254B29462046FFF784FCAF
:10A7E00032463B46FFF7CEFB06460F461522920641
:10A7F0001C4B29462046FFF777FC3B463246FFF7C5
:10A80000C1FB179A002A05DA119A524211920122CD
:10A81000D2075140189A51601060119819B0F0BDDC
:10A82000FB21E93F7CD90240FB21F93F0000405465
:10A830003163621A61B4D03D7370032E8A19A33B51
:10A84000FB21394183C8C96D305FE43F0000E03F20
:10A85000B40D0000780D00000BFCFFFF320D00006E
:10A86000182D4454FB21F93D3326A611460B113C0B
:10A87000F0B51FB44E00F9207608800584B00F466D
:10A88000864204DA0498FFF76DFD002838D0049A58
:10A890003B4610461946FFF727FC044602462C4863
:10A8A0000D460B460621784400F05CF822462B4604
:10A8B000FFF71AFC019100903946079B069A04980D
:10A8C000FFF712FC0746029120462946019B009A99
:10A8D000FFF70AFC3A46029BFFF7F7FB0746002208
:10A8E0000091D24320462946FFF7F5F9194A9642CE
:10A8F0000ADA3A46009BFFF7E8FB0022164B23E0FA
:10A900000020154909B0F0BD144A964202DD00242A
:10A91000134D03E001225205B51A002422462B46AE
:10A92000FFF7D3FB0646019122462B4600200A4939
:10A93000FFF7CBFB0D4604463A463046009B019993
:10A94000FFF7C3FB22462B46FFF7C5FB09B0F0BD5E
:10A95000DE0A00003333D33F0000F03F0000E93F40
:10A960000000D23FF8B504464F1EC8000838211831
:10A9700015461E46086849683A4606239A4310D091
:10A980002A463346FFF7B0FB3A46D200083AA318EE
:10A990001A687F1E5B68FFF7F5FA06223B46934371
:10A9A000EED1022F23D0042F11D0062F2FD12A460B
:10A9B0003346FFF799FBE36AA26AFFF7E3FA2A46F8
:10A9C0003346FFF791FB636A226AFFF7DBFA2A46F8
:10A9D0003346FFF789FBE369A269FFF7D3FA2A46FA
:10A9E0003346FFF781FB63692269FFF7CBFA2A46FA
:10A9F0003346FFF779FBE368A268FFF7C3FA2A46FC
:10AA00003346FFF771FB63682268FFF7BBFAF8BDB6
:10AA1000F0B51FB4054648000C46F92140088905E9
:10AA200086B088420BDA28462146FFF73DFD042810
:10AA300001D100F063F8284621460BB0F0BD2A464C
:10AA4000234610461946FFF74FFB06460F462A4697
:10AA50002346FFF749FB00902548019132463B46CB
:10AA600005217844FFF77EFF02901098039100289B
:10AA700029D0204A204B01990098FFF735FB04901C
:10AA8000059168460FC8FFF72FFB00220191009047
:10AA9000D24309990898FFF71EF9019B009AFFF726
:10AAA00014FB32463B46FFF71FFB099B089AFFF752
:10AAB0000CFB059B049AFFF708FB2A462346FFF789
:10AAC0000AFB0BB0F0BD0B4630463946029AFFF741
:10AAD0000BFB084A084BFFF755FA019B009AFFF75A
:10AAE00003FB2A462346FFF74DFA0BB0F0BD0000EA
:10AAF0001A0A0000495555555555C5BF034A10B5AA
:10AB000000201107FFF7E7F810BD000001FDFFFF6F
:10AB100002E008C8121F08C1002AFAD17047704726
:10AB2000002001E001C1121F002AFBD17047000084
:10AB3000014908607047000068210020FFB591B00E
:10AB40000F4605460026F9E0252876D100246D1C25
:10AB5000FB4A0094012102942B780846203B984040
:10AB60000346134202D004436D1CF5E728782A28D7
:10AB70000ED0022128780246303A092A15D8009AC8
:10AB80000A235A43303A80180C436D1C0090F1E7B9
:10AB900001CF0090002805DA01204003044300980B
:10ABA00040420090022004436D1C28782E2815D1C5
:10ABB000042004436D1C28782A280AD101CF6D1C7B
:10ABC00002900BE002990A225143303940186D1C63
:10ABD00002902878014630390929F3D928786C2861
:10ABE00010D006DC4C281AD068280ED06A2817D15D
:10ABF00004E0742813D07A2812D110E00120400517
:10AC000004430CE00121090501E0032109050C437F
:10AC10006978814203D101206D1C000524186D1C48
:10AC2000287803906E281FD00DDC632833D005DC14
:10AC300000287DD0582812D1BEE010E0642801D051
:10AC400069280CD181E073282FD004DC6F2870D0E4
:10AC5000702804D1B2E075286CD078286BD0149A93
:10AC600013999047761C68E06002400F022807D0D5
:10AC700003280AD0042838680AD03F1D06605CE02B
:10AC800001CFF1170660416057E001CF068054E024
:10AC90003F1D067051E038786946087400204874FA
:10ACA00004A83F1D0390012003E001CF0390002082
:10ACB000C04361070FD5002101E00199491C029AA8
:10ACC0000191914213DA8142F7DB019A0399895C81
:10ACD0000029F2D10BE0002101E00199491C01910A
:10ACE0008142FADB019A0399895C0029F5D1019927
:10ACF0000098139A401A00902146149B00F046F9E0
:10AD000001998019461807E0039803990078491CB7
:10AD10000391149A139990470198401E0190401C8A
:10AD2000F2D12146149B139A009800F01FF903E01A
:10AD300008E04CE03EE03FE086196D1C28780028D2
:10AD400000D001E7304615B0F0BD0A200021049084
:10AD500005916002410F022905D001CFC217944628
:10AD6000032907D009E0FF1DFF08FF007968386854
:10AD7000083706E000B2C2179446042902D140B257
:10AD8000C1178C4600226146944506DA0A46002126
:10AD9000404291418C462D2102E0210504D52B2112
:10ADA0006A461176012103E0E10701D02021F7E78F
:10ADB000019150E00A200BE0102009E010200490DF
:10ADC00000210420044308200591029003E008209C
:10ADD0000021059104906002410F022905D001CFA6
:10ADE00000229446032908D008E0FF1DFF08FF0059
:10ADF0007968386808378C4603E080B2042900D1AE
:10AE0000C0B200210191210725D5039970292AD0CC
:10AE1000049A1021059B4A401A4309D16146014317
:10AE200006D030216A4611760399517602210191AC
:10AE3000049A0821059B4A401A430CD161460143FC
:10AE400001D1610707D530216A46117601210191B0
:10AE50000299491E02910399582909D039A10391F9
:10AE60000FA90F9112E040216A4611760121DEE719
:10AE700039A1F4E76146059B049AFEF79FFF039B07
:10AE80008C469B5C0F9A521E0F92137061460143D1
:10AE9000F0D10F9807A9081A20300390600704D555
:10AEA000012000048443029801E0012002900399EC
:10AEB000884201DD401A00E000204118029001980C
:10AEC00009180098401A0090E00306D42146149B0C
:10AED000139A009800F05AF88619002007E006A996
:10AEE000085C149A139990470498761C401C0199A9
:10AEF00004908842F3DBE0030CD52146149B139A9F
:10AF0000009800F043F8861904E0149A3020139951
:10AF10009047761C0299481E02900029F5DC08E053
:10AF20000F980F990078491C0F91149A1399904724
:10AF3000761C0399481E03900029F1DCF1E600001D
:10AF400009280100303132333435363738396162FF
:10AF500063646566000000003031323334353637C3
:10AF6000383941424344454600000000F8B50446E4
:10AF700000251E461746880404D405E039462020E3
:10AF8000B0476D1C641EF9D52846F8BDFFB50446D0
:10AF9000002581B01E46C80301D5302700E02027D8
:10AFA000880404D505E038460399B0476D1C641E3B
:10AFB000F9D5284605B0F0BD0A68531C0B60107027
:10AFC00070470000F8B54A002C4B520DD6182C4A99
:10AFD0000C460546142E2BDA002E12DA294BFEF70A
:10AFE000D1FF00221346FFF75FF941D2002C02DBAC
:10AFF00000252C463CE060004008284338D0224C15
:10B0000014E0224F0B46F7403B402B4332D01D4B00
:10B01000FEF7B8FF00221346FFF746F928D2002CAE
:10B0200003DA01200005F0400419BC4300251FE0AD
:10B03000332E1FDC33460027143BFF43DF4003461B
:10B040003B4217D00F4BFFF746F800221346FFF79D
:10B050002BF90DD2002C0ADA142E0CD03420811BCF
:10B06000012088404019A84200D2641C0546BD4317
:10B0700021462846F8BD641CF9E7000001FCFFFFEB
:10B080009C7500883CE4377E0000F0BFFFFF0F0096
:10B0900010B5002823D0124B001F0022196803E0CE
:10B0A000814203D80A4649680029F9D1002A0AD00A
:10B0B0001368841A9C4204D1006818181060104666
:10B0C00002E0506000E01860002907D002680B1A07
:10B0D000934203D10B68D21802604968416010BDE9
:10B0E00060210020F0B50B30C108C900144F0026C4
:10B0F000144A0FE003688B420BD38B4205D95C1ACC
:10B10000431845685D601C6000E04368136002C03E
:10B1100004E0021D10680028ECD13046002803D15D
:10B120003868002801D00020F0BD064A06481060AB
:10B13000064A121AD208D20044C001203860D7E76C
:10B1400064210020602100204C2C00204834002085
:10B1500000B54A00254B520887B09A4203DC002212
:10B16000134600922EE0224B9A420CD100280CD1BB
:10B170000120FFF7DDFC0022134610461146FFF7C1
:10B180001BF807B000BD9A4204DB0122FEF7A3FDC5
:10B1900007B000BD02AAFFF79DF98107890F0120C2
:10B1A00000290CD0012911D0022915D002A80FC8FE
:10B1B000FFF75EFB0122D207514007B000BD0090AF
:10B1C00002A80FC8FFF724FC07B000BD02A80FC8F3
:10B1D000FFF74EFB07B000BD009002A80FC8FFF7B5
:10B1E00017FC0122D207514007B000BDFB21E93F07
:10B1F0000000F07F010000000F1801000A18010094
:10B200001E000101FFFF0019000102FEFF001400F3
:10B210000103FDFF000F000204FCFE000A0003050D
:10B22000FBFD0005000507F9FB00640404080000AD
:10B2300000FC00000008F800000008F8000000080A
:10B24000F800000008F800000008F800000008F806
:10B2500000000000000008F800000000000008F8EE
:10B2600000000000000008F800000000000008F8DE
:10B2700000000000000008F800000000000008F8CE
:10B2800000000000000000000000000000000000BE
:10B29000000000000000000000000000000008F8AE
:10B2A000000000000000000000000000000000009E
:10B2B000000000000000000000000000FCFCFC009A
:10B2C0000020804500007F4500007A4500A07545BC
:10B2D00000E0714500C06E4500E06C4500A06B4584
:10B2E00000206945004067450000664500C05A459A
:10B2F00000C04145645A50463C32281E140F0A05CE
:10B30000000000009ECADC240EE5A9E093F3A3B57B
:10B310000000406E0000000001000000010000007D
:10B320000500000005000000030000000000000010
:10B3300007000000070000000C00000011000000E2
:10B340001600000005000000090000000E000000CB
:10B3500014000000040000000B00000010000000BA
:10B3600017000000060000000A0000000F000000A7
:10B3700015000000B9980100C3980100CB980100A6
:10B38000D1980100000000004C5555555555A53F7A
:10B390007751C1166CC156BF9015CB19A001FA3E6A
:10B3A000AD529C804F7E92BEC4B1B4BD9EEE213E94
:10B3B000D43888BEE9FAA8BD00004054FB21F93F0B
:10B3C0003163621A61B4D03D0000601A61B4D03DAF
:10B3D0007370032E8A19A33B0000002E8A19A33B29
:10B3E000C14920259A837B3900000000000000003D
:10B3F0006E83F9A22915444ED15727FCC0DD34F5E0
:10B40000999562DB4190433CAB6351FE61C5BBDE65
:10B410003A6E24B7E0D24D42EA2E49061C92D10979
:10B420001CEB1DFE3EA729B1F53582E88444BB2EF6
:10B4300026709CE9417E5FB439D69139F439538343
:10B440008B5F849C3B28F9BDFF97F81F0F9805DEA2
:10B450008B112FEF1F6D0A5ACF7E366DB709CB27A0
:10B46000663F464F2DEA5F9EC7BA27757BF1E5EB35
:10B47000F739073DEA92528AB15FFB6B085D8D1F79
:10B48000A6F810111111813FD561C119A0012ABF81
:10B490007DFEB157E31DC73EEB9C2B8AE6E55ABE05
:10B4A0007CD5CF5A3AD9E53DC8B401000020002030
:10B4B0006C010000ACA30100ECB401006C21002081
:10B4C000DC1A000020AB0100115324F40316FFFF27
:10B4D0003217320314D766015A180C1AEB0C721D7E
:0CB4E0001A0D0CA1890C02FF0B011400D6
:04000005000160C1D5
:00000001FF
